:020000040000FA
:100000000C94A4000C94CC000C94CC000C94CC0068
:100010000C94CC000C94CC000C94CC000C94CE0529
:100020000C94CC000C94CC000C94CC000C94CC0020
:100030000C94CC000C94CC000C94CC000C94CC0010
:100040000C9482060C94CC000C9450060C942A0656
:100050000C94CC000C94CC000C94CC000C94CC00F0
:100060000C94CC000C94CC0007634236B79BD8A705
:100070001A39685618AEBAAB558C1D3CB7CC5763CD
:10008000BD6DEDFD753EF6177231BF000000803F7B
:1000900008000000BE922449123EABAAAA2ABECD97
:1000A000CCCC4C3E00000080BEABAAAAAA3E000009
:1000B0000000BF000000803F000000000008417801
:1000C000D3BB4387D1133D190E3CC3BD4282AD2B38
:1000D0003E68EC8276BED98FE1A93E4C80EFFFBE30
:1000E00001C4FF7F3F00000000000000000024006A
:1000F00027002A0000000000250028002B00020035
:100100000000002300260029000404040404040461
:1001100004020202020202030303030303010204B6
:100120000810204080010204081020010204081079
:100130002000000008000201000003040700000086
:10014000000000000000ED0811241FBECFEFD8E032
:10015000DEBFCDBF22E0ACE4B1E001C01D92AD3006
:10016000B207E1F711E0A0E0B1E0ECEAFEE102C085
:1001700005900D92AC34B107D9F710E0C4EAD0E095
:1001800004C02197FE010E945C0DC33AD107C9F754
:100190000E94CC060C94540F0C940000AF92BF92B6
:1001A000CF92DF92EF92FF920F931F93CF93DF9343
:1001B0006C017B018B01040F151FEB015E01AE1872
:1001C000BF08C017D10759F06991D601ED91FC9194
:1001D0000190F081E02DC6010995892B79F7C501C1
:1001E000DF91CF911F910F91FF90EF90DF90CF9013
:1001F000BF90AF900895FC01538D448D252F30E0C2
:10020000842F90E0821B930B541710F0CF96089523
:1002100001970895FC01918D828D981761F0A28D50
:10022000AE0FBF2FB11D5D968C91928D9F5F9F7316
:10023000928F90E008958FEF9FEF0895FC01918DCC
:10024000828D981731F0828DE80FF11D858D90E039
:1002500008958FEF9FEF0895FC01918D228D892FD6
:1002600090E0805C9F4F821B91098F7399270895BE
:100270008CE691E00E942C0121E0892B09F420E01A
:10028000822F089580E090E0892B29F00E943801A8
:1002900081110C9400000895FC01A48DA80FB92FC2
:1002A000B11DA35ABF4F2C91848D90E001968F739E
:1002B0009927848FA689B7892C93A089B1898C91BD
:1002C000837080648C93938D848D981306C002880C
:1002D000F389E02D80818F7D80830895EF92FF92D6
:1002E0000F931F93CF93DF93EC0181E0888F9B8D59
:1002F0008C8D98131AC0E889F989808185FF15C013
:100300009FB7F894EE89FF896083E889F989808135
:100310008370806480839FBF81E090E0DF91CF9104
:100320001F910F91FF90EF900895F62E0B8D10E026
:100330000F5F1F4F0F731127E02E8C8D8E110CC095
:100340000FB607FCFACFE889F989808185FFF5CFE0
:10035000CE010E944C01F1CFEB8DEC0FFD2FF11D72
:10036000E35AFF4FF0829FB7F8940B8FEA89FB891D
:1003700080818062CFCFCF93DF93EC01888D88237B
:10038000B9F0AA89BB89E889F9898C9185FD03C0F8
:10039000808186FD0DC00FB607FCF7CF8C9185FFDD
:1003A000F2CF808185FFEDCFCE010E944C01E9CFD5
:1003B000DF91CF910895833081F028F4813099F056
:1003C0008230A9F008958730A9F08830C9F08430D0
:1003D000B1F4809180008F7D03C0809180008F7781
:1003E00080938000089584B58F7784BD089584B587
:1003F0008F7DFBCF8091B0008F778093B000089500
:100400008091B0008F7DF9CFCF93DF93E9E3F1E0E6
:100410008491E5E2F1E0D491E1E1F1E0C491CC23F3
:10042000A1F081110E94DB01EC2FF0E0EE0FFF1F25
:10043000E150FF4FA591B491EC91ED2381E090E064
:1004400009F480E0DF91CF91089580E090E0FACF49
:100450001F93CF93DF93282F30E0F901EF5CFE4F1D
:100460008491F901E35EFE4FD491F901E75FFE4FFD
:10047000C491CC23A9F0162F81110E94DB01EC2F2F
:10048000F0E0EE0FFF1FEC50FF4FA591B4918FB736
:10049000F894EC91111108C0D095DE23DC938FBF46
:1004A000DF91CF911F910895DE2BF8CF909100013D
:1004B00089130BC0EEEFF0E0E4919FEF9093000101
:1004C000E13049F028F0E23061F060E00C9428025D
:1004D00010926E00FACF90916F009D7F90936F0005
:1004E000F4CF909170009D7F9093700091E0909375
:1004F000B0009091B100987F94609093B1001092F9
:10050000B300E3CFCF93DF9390E0FC01E35EFE4FB7
:100510002491875F9E4FFC0184918823D1F090E065
:10052000880F991FFC01E651FF4FA591B491FC0182
:10053000EC50FF4FC591D491623071F49FB7F8949D
:100540003C91822F809583238C93E8812E2B2883E6
:100550009FBFDF91CF9108958FB7F894EC912E2B28
:100560002C938FBFF6CF8F929F92AF92BF92CF9274
:10057000DF92EF92FF92CF936C01809100018A305D
:1005800069F08F3F09F470C0CF91FF90EF90DF903A
:10059000CF90BF90AF909F908F900895EEEFF0E0D6
:1005A000C491C7FDF1CF61E08AE00E948202CC23B2
:1005B00019F0C23009F022C1F12CE12C60E072E1A7
:1005C0008AE790E0A70196010E941B0D49015A019C
:1005D000DA01C9010197A109B1098F3F9105A10570
:1005E000B10509F00CF4EEC060E472E48FE090E035
:1005F000A70196010E941B0D2150310941095109A3
:10060000C23009F0A0C082E02F3F310541055105FD
:1006100009F00CF488C160E970ED83E090E0A70177
:1006200096010E941B0D215031094109510983E0B7
:100630002F3F31054105510509F00CF474C168E400
:1006400078EE81E090E0A70196010E941B0D2150F9
:100650003109410951092F3F31054105510511F07B
:100660000CF08FC084E05FC18AE080930001EEEF60
:10067000F0E0C491CF3F09F487CFC13021F150F0B1
:10068000C23009F43EC0C7FD7FCF61E08AE00E941E
:1006900082028FCF14BC15BC84B5826084BD85B541
:1006A000816085BDE3E1F1E0E491F0E0EE0FFF1F32
:1006B000EC50FF4F85919491E7E2F1E0E491E093F3
:1006C0005F01C0E070CF1092800010928100809195
:1006D0008100886080938100809181008160809397
:1006E0008100E3E1F1E0E491F0E0EE0FFF1FEC5058
:1006F000FF4F85919491E7E2F1E0E491E0935E0190
:1007000052CF1092B0001092B1008091B000826080
:100710008093B0008091B10081608093B100E3E1EB
:10072000F1E0E491F0E0EE0FFF1FEC50FF4F8591F8
:10073000949190935D0180935C01E7E2F1E0E49194
:10074000E0935B0130CF2F3F31054105510509F0A2
:100750000CF452C068E478EE81E090E0A7019601C5
:100760000E941B0D2150310941095109CC2309F484
:10077000AFC02F3F31054105510511F00CF0B0C05D
:1007800071CF64E274EF80E090E0A70196010E94CF
:100790001B0D215031094109510985E02F3F3105D9
:1007A0004105510509F008F4BEC062E17AE780E036
:1007B00090E0A70196010E941B0D215031094109CB
:1007C00051099CC09C0181E0C111ADC095B5987FD5
:1007D000892B85BD27BD8FEF9FEFDC0180936801DA
:1007E00090936901A0936A01B0936B0180916E00B0
:1007F000826080936E00C8CE82E0E6CFF12CE12CBF
:1008000060E072E18AE790E0A70196010E941B0D6B
:10081000215031094109510991E02115310581E04B
:10082000480751056CF068E478EE81E090E0A7019C
:1008300096010E941B0D215031094109510993E095
:10084000C13009F076C080918100887F892B809328
:10085000810030938900209388008FEF9FEFDC01A7
:100860008093640190936501A0936601B093670142
:1008700080916F00826080936F0086CE2093B300DA
:100880008FEF9FEFDC018093600190936101A09353
:100890006201B09363018091700082608093700068
:1008A00073CE84E02F3F31054105510509F008F46E
:1008B0008DCF9AE0B594A794979487949A95D1F7A1
:1008C000A5019401215031094109510985E07ECFEC
:1008D00083E02F3F31054105510509F00CF476CF37
:1008E00062E17AE780E090E0A70196010E941B0D8B
:1008F0002150310941095109CC2399F286E02F3F5B
:1009000031054105510579F070F08AE0B594A7945E
:10091000979487948A95D1F7A501940121503109C4
:100920004109510987E09091B100987F892B80930C
:10093000B100C13009F48DCFC23009F49FCFC1118D
:1009400023CE48CF3FB7F894809151019091520146
:10095000A0915301B091540126B5A89B05C02F3F2B
:1009600019F00196A11DB11D3FBFBA2FA92F982FD5
:100970008827BC01CD01620F711D811D911D42E0D0
:10098000660F771F881F991F4A95D1F708958F9298
:100990009F92AF92BF92CF92DF92EF92FF926B0144
:1009A0007C010E94A2044B015C01C114D104E1044A
:1009B000F104B9F00E94A204681979098A099B0917
:1009C000683E73408105910580F321E0C21AD10889
:1009D000E108F10888EE880E83E0981EA11CB11C86
:1009E000E4CFFF90EF90DF90CF90BF90AF909F90BB
:1009F0008F900895FC0101900020E9F73197AF0135
:100A0000481B590BBC018CE691E00C94CE000F936F
:100A10001F93CF93DF93EC0188819981009759F060
:100A20002A813B812617370730F081E0DF91CF9193
:100A30001F910F9108958B016F5F7F4F0E94870E6A
:100A4000009759F0998388831B830A832C813D8109
:100A5000232B59F7FC011082E8CF80E0E7CFEF921B
:100A6000FF920F931F93CF93DF936115710541F4AC
:100A700080E0DF91CF911F910F91FF90EF9008954B
:100A800041155105B1F07B01EC010C811D81040F72
:100A9000151FB8010E940705882351F32881398169
:100AA0008C819D81B701820F931F0E944D0F1D8382
:100AB0000C8381E0DECFCF93DF93EC0188819981B5
:100AC000009711F00E94FE0D198218821D821C826F
:100AD0001B821A82DF91CF910895EF92FF920F93BC
:100AE0001F93CF93DF93EC017B018A01BA010E942F
:100AF000070581110BC0CE010E945B05CE01DF917D
:100B0000CF911F910F91FF90EF9008951D830C835B
:100B1000B701888199810E944D0FF0CFEF92FF922B
:100B20000F931F93CF93DF93CDB7DEB762970FB6C6
:100B3000F894DEBF0FBECDBF8C01CB01F80111824E
:100B4000108213821282158214824AE09E012F5F66
:100B50003F4F7901B9010E941A09F7010190002065
:100B6000E9F73197AF014E195F09B701C8010E943B
:100B70006D0562960FB6F894DEBF0FBECDBFDF9154
:100B8000CF911F910F91FF90EF900895FC0180810C
:100B90009181009711F00C94FE0D08951F920F9211
:100BA0000FB60F9211242F933F934F935F936F9340
:100BB0007F938F939F93AF93BF93EF93FF93809116
:100BC000600190916101A0916201B0916301892B54
:100BD0008A2B8B2BD1F190915B01E0915C01F0911C
:100BE0005D018081892780838091600190916101FE
:100BF000A0916201B0916301181619061A061B062E
:100C00009CF48091600190916101A0916201B0918A
:100C100063010197A109B10980936001909361017B
:100C2000A0936201B0936301FF91EF91BF91AF91E7
:100C30009F918F917F916F915F914F913F912F91F4
:100C40000F900FBE0F901F901895809100010E9489
:100C50005602EACF1F920F920FB60F9211242F93D4
:100C60003F934F935F936F937F938F939F93AF9334
:100C7000BF93EF93FF938CE691E00E944C01FF91AC
:100C8000EF91BF91AF919F918F917F916F915F9104
:100C90004F913F912F910F900FBE0F901F9018957D
:100CA0001F920F920FB60F9211242F938F939F9341
:100CB000EF93FF93E0917C01F0917D018081E091C1
:100CC0008201F091830182FD1BC09081809185019A
:100CD0008F5F8F7320918601821741F0E09185012B
:100CE000F0E0E459FE4F958F80938501FF91EF91DD
:100CF0009F918F912F910F900FBE0F901F9018957D
:100D00008081F4CF1F920F920FB60F9211242F9370
:100D10003F938F939F93AF93BF9380914D01909199
:100D20004E01A0914F01B091500130914C0123E050
:100D3000230F2D3758F50196A11DB11D20934C01AD
:100D400080934D0190934E01A0934F01B0935001B9
:100D50008091510190915201A0915301B0915401A1
:100D60000196A11DB11D8093510190935201A09352
:100D70005301B0935401BF91AF919F918F913F91D7
:100D80002F910F900FBE0F901F90189526E8230FFC
:100D90000296A11DB11DD2CFCF93DF93CDB7DEB7A1
:100DA0002C970FB6F894DEBF0FBECDBF789484B5F4
:100DB000826084BD84B5816084BD85B5826085BD57
:100DC00085B5816085BD80916E00816080936E00E5
:100DD00010928100809181008260809381008091D7
:100DE0008100816080938100809180008160809388
:100DF00080008091B10084608093B1008091B00048
:100E000081608093B00080917A00846080937A0042
:100E100080917A00826080937A0080917A0081606C
:100E200080937A0080917A00806880937A00109293
:100E3000C10061E089E00E94820261E08DE00E94D1
:100E4000820262E088E00E94820261E08AE00E9401
:100E5000820260E08DE00E94280261E089E00E9449
:100E6000820260E089E00E942802E0917C01F0911A
:100E70007D0182E08083E0917801F0917901108218
:100E8000E0917A01F0917B018FEC808310928401D4
:100E9000E0918001F091810186E08083E0917E0104
:100EA000F0917F01808180618083E0917E01F091EB
:100EB0007F01808188608083E0917E01F0917F01D5
:100EC000808180688083E0917E01F0917F01808144
:100ED0008F7D80838AE294E2A8E4B1E48093550197
:100EE00090935601A0935701B09358019AE3C92EED
:100EF00091E0D92EAA24A394B12C80E0882E80E022
:100F0000982E0E94040290935A0180935901892BD4
:100F100009F4F4C089E191E00E94FA0485E291E0CD
:100F20000E94FA0410E000E0B801012E000C880BCA
:100F3000990B0E9451092091550130915601409121
:100F40005701509158010E94EE0A9B01AC0160E0EC
:100F500070E080E090E40E94960B20E030E040E8F2
:100F60005FE30E94810A0E94600B2B017B0161E01C
:100F700089E00E9482024114510409F0DFC060E060
:100F800089E00E94280264E670E080E090E00E9420
:100F9000C704B801CE0101960E948E0518861F82F3
:100FA0001A8619861C861B864AE050E068E271E0CA
:100FB000CE0107960E946D054D815E8169817A811F
:100FC000CE0107960E942F05811104C0CE0107961D
:100FD0000E945B054B855C856F8178858CE691E08E
:100FE0000E94CE0085E291E00E94FA04CE010796AD
:100FF0000E94C605CE0101960E94C605B201CE012F
:1010000001960E948E0518861F821A8619861C86F4
:101010001B8640E150E063E371E0CE0107960E9439
:101020006D054D815E8169817A81CE0107960E94AE
:101030002F05811104C0CE0107960E945B054B85E8
:101040005C856F8178858CE691E00E94CE0085E218
:1010500091E00E94FA04CE0107960E94C605CE01D7
:1010600001960E94C6050F5F1F4F0536110509F056
:101070005BCF61E08DE00E9428020E9404027C01A7
:101080008AE00E94560288EB91E00E94B30264E677
:1010900070E080E090E00E94C7040E94040211E02A
:1010A000892B19F4EF2809F410E0812F90E0909338
:1010B0005A01809359018AE00E94560284E992E025
:1010C0000E94B30264E670E080E090E00E94C704F2
:1010D0000E940402892B09F479C0B0925A01A092AF
:1010E000590160E08DE00E9428028AE00E945602C9
:1010F00064E670E080E090E00E94C70484E491E040
:101100000E94FA0485E291E00E94FA0461E089E01D
:101110000E94820260E089E00E94280260E08DE087
:101120000E9428028114910409F4EBCE0E94380138
:10113000882309F4E2CE0E940000DFCE8FEF48162C
:10114000510411F461E01CCFF6018491833021F148
:1011500048F48130B9F08230D1F0F0E8EF16F104B4
:101160008CF70DCF873011F1883041F18430A9F729
:101170008091800080628093800050928B0040922A
:101180008A0001CF84B5806884BD47BCFCCE84B59D
:10119000806284BD48BCF7CE8091800080688093D7
:1011A00080005092890040928800EDCE8091B0007E
:1011B00080688093B0004092B300E5CE8091B0008B
:1011C00080628093B0004092B400DDCE111185CFD3
:1011D00010925A011092590150CFECE6F1E01382BF
:1011E000128288EE93E0A0E0B0E084839583A6832A
:1011F000B7838BE091E09183808385EC90E09587C5
:10120000848784EC90E09787868780EC90E0918BD0
:10121000808B81EC90E0938B828B82EC90E0958BBD
:10122000848B86EC90E0978B868B118E128E138EBA
:10123000148E0895BB274A3031F4992322F4BDE27D
:10124000909581959F4F0C942609BB27FB0155274C
:10125000AA27880F991FAA1FA41710F0A41B839513
:101260005051B9F7A05DAA3308F0A95DA19300978A
:1012700079F7B111B1931192CB010C943F09DC01C4
:10128000FC01672F71917723E1F7329704C07C91BD
:101290006D9370836291AE17BF07C8F30895E89409
:1012A00009C097FB3EF490958095709561957F4FAE
:1012B0008F4F9F4F9923A9F0F92F96E9BB2793955C
:1012C000F695879577956795B795F111F8CFFAF46C
:1012D000BB0F11F460FF1BC06F5F7F4F8F4F9F4F9D
:1012E00016C0882311F096E911C0772321F09EE8FB
:1012F000872F762F05C0662371F096E8862F70E061
:1013000060E02AF09A95660F771F881FDAF7880F3A
:101310009695879597F908950E949F090C94100A55
:101320000E94020A38F00E94090A20F0952311F069
:101330000C94F9090C94FF0911240C94440A0E949E
:10134000210A70F3959FC1F3950F50E0551F629FDE
:10135000F001729FBB27F00DB11D639FAA27F00D0E
:10136000B11DAA1F649F6627B00DA11D661F829F35
:101370002227B00DA11D621F739FB00DA11D621F1A
:10138000839FA00D611D221F749F3327A00D611D37
:10139000231F849F600D211D822F762F6A2F112419
:1013A0009F5750409AF0F1F088234AF0EE0FFF1F4C
:1013B000BB1F661F771F881F91505040A9F79E3FA3
:1013C000510580F00C94F9090C94440A5F3FE4F352
:1013D000983ED4F3869577956795B795F795E795F9
:1013E0009F5FC1F7FE2B880F911D9695879597F902
:1013F000089597F99F6780E870E060E008959FEF97
:1014000080EC089500240A9416161706180609069B
:10141000089500240A94121613061406050608956A
:10142000092E0394000C11F4882352F0BB0F40F4F2
:10143000BF2B11F460FF04C06F5F7F4F8F4F9F4F32
:10144000089557FD9058440F551F59F05F3F71F0B4
:101450004795880F97FB991F61F09F3F79F087951B
:101460000895121613061406551FF2CF4695F1DFA4
:1014700008C0161617061806991FF1CF8695710534
:10148000610508940895E894BB2766277727CB0168
:1014900097F908952F923F924F925F926F927F92A9
:1014A0008F929F92AF92BF92CF92DF92EF92FF9274
:1014B0000F931F93CF93DF93CDB7DEB7CA1BDB0B20
:1014C0000FB6F894DEBF0FBECDBF09942A883988C5
:1014D00048885F846E847D848C849B84AA84B984CC
:1014E000C884DF80EE80FD800C811B81AA81B981D8
:1014F000CE0FD11D0FB6F894DEBF0FBECDBFED01EC
:1015000008955058BB27AA270E94990A0C94100AE4
:101510000E94020A38F00E94090A20F039F49F3F25
:1015200019F426F40C94FF090EF4E095E7FB0C94F3
:10153000F909E92F0E94210A58F3BA1762077307C5
:101540008407950720F079F4A6F50C94430A0EF46D
:10155000E0950B2EBA2FA02D0B01B90190010C01C3
:10156000CA01A0011124FF27591B99F0593F50F4DB
:10157000503E68F11A16F040A22F232F342F442733
:10158000585FF3CF469537952795A795F04053952B
:10159000C9F77EF41F16BA0B620B730B840BBAF0FB
:1015A0009150A1F0FF0FBB1F661F771F881FC2F766
:1015B0000EC0BA0F621F731F841F48F4879577957A
:1015C0006795B795F7959E3F08F0B0CF9395880F34
:1015D00008F09927EE0F9795879508950E94020BC2
:1015E0000C94100A0E94090A58F00E94020A40F066
:1015F00029F45F3F29F00C94F90951110C94440A25
:101600000C94FF090E94210A68F39923B1F3552332
:1016100091F3951B550BBB27AA2762177307840705
:1016200038F09F5F5F4F220F331F441FAA1FA9F39B
:1016300035D00E2E3AF0E0E832D091505040E69589
:10164000001CCAF72BD0FE2F29D0660F771F881FEA
:10165000BB1F261737074807AB07B0E809F0BB0BDD
:10166000802DBF01FF2793585F4F3AF09E3F5105F1
:1016700078F00C94F9090C94440A5F3FE4F3983E27
:10168000D4F3869577956795B795F7959F5FC9F7DA
:10169000880F911D9695879597F90895E1E0660F5B
:1016A000771F881FBB1F621773078407BA0720F0D4
:1016B000621B730B840BBA0BEE1F88F7E09508953D
:1016C0000E94670B6894B1110C94440A08950E941B
:1016D000290A88F09F5798F0B92F9927B751B0F091
:1016E000E1F0660F771F881F991F1AF0BA95C9F7A6
:1016F00014C0B13091F00E94430AB1E008950C94F7
:10170000430A672F782F8827B85F39F0B93FCCF3A9
:10171000869577956795B395D9F73EF49095809522
:10172000709561957F4F8F4F9F4F0895FA01EE0F8F
:10173000FF1F309621053105A1F16115710561F496
:101740008038BFE39B0749F168949038810561F0C8
:101750008038BFEF9B0741F099234AF5FF3FE10531
:101760003105210519F1E8940894E795D901AA23D8
:1017700029F4AB2FBE2FF85FD0F310C0FF5F70F4D9
:10178000A695E0F7F73950F019F0FF3A38F49F7753
:101790009F930DD00F9007FC9058089546F00C943D
:1017A000FF0960E070E080E89FE308954FE79F77CE
:1017B0005F934F933F932F930E94910C2F913F91F2
:1017C0004F915F910E948C090C94EE0B29F416F056
:1017D0000C94F9090C94430A0C94FF090E94290AFD
:1017E000A8F39638A0F707F80F92E8942BE33AEAAB
:1017F00048EB5FE70E94A2090F920F920F924DB73C
:101800005EB70F920E94D90CE8E6F0E00E94200C2F
:101810004F915F91EF91FF91E595EE1FFF1F49F00A
:10182000FE57E0684427EE0F441FFA95E1F7419513
:10183000550B0E94530C0F9007FE0C94470C089513
:10184000DF93CF931F930F93FF92EF92DF927B0171
:101850008C01689406C0DA2EEF010E949F09FE01F8
:10186000E894A5912591359145915591A6F3EF0105
:101870000E94990AFE019701A801DA9469F7DF90A6
:10188000EF90FF900F911F91CF91DF9108959B01F1
:10189000AC0160E070E080E89FE30C94EE0A0C94E9
:1018A000F9090C940D0D0E94290AD8F39923C9F364
:1018B000940F511DA3F39150504094F059F0882398
:1018C00032F0660F771F881F91505040C1F79E3F3E
:1018D00051052CF7880F911D9695879597F90895D6
:1018E0005F3FACF0983E9CF0BB2786957795679557
:1018F000B79508F4B1609395C1F7BB0F58F711F491
:1019000060FFE8CF6F5F7F4F8F4F9F4FE3CF0C9407
:10191000440A16F00C940D0D0C94FF0968940C9475
:10192000F9090E94290AA8F39923C1F3AEF3DF93C2
:10193000CF931F930F93FF92C92FDD2788232AF09F
:101940002197660F771F881FDAF720E030E040E824
:101950005FEB9FE3883920F0803E38F021968F7747
:101960000E94820AE0E9F0E004C00E94820AEDEBE6
:10197000F0E00E94200C8B01BE01EC01FB2E6F57A2
:1019800071097595771F880B990B0E94510928E101
:1019900032E741E35FE30E949F09AF2D9801AE015A
:1019A000FF900F911F91CF91DF910E94990A0C94A3
:1019B000100AFA01DC01AA0FBB1F9B01AC01BF5743
:1019C00028F4222733274427507820C0B75190F4B9
:1019D000AB2F0024469537952795011CA395D2F38C
:1019E000002071F0220F331F441FB395DAF30ED09D
:1019F0000C94810A61307105A0E88A07B94630F479
:101A00009B01AC016627772788279078309621F0D4
:101A1000208331834283538308959F3F31F0915057
:101A200020F4879577956795B795880F911D9695C2
:101A3000879597F90895052E97FB1EF400940E9450
:101A4000320D57FD07D00E943A0D07FC03D04EF42B
:101A50000C94320D50954095309521953F4F4F4F46
:101A60005F4F089590958095709561957F4F8F4F4A
:101A70009F4F0895A1E21A2EAA1BBB1BFD010DC0AA
:101A8000AA1FBB1FEE1FFF1FA217B307E407F5072E
:101A900020F0A21BB30BE40BF50B661F771F881F0A
:101AA000991F1A9469F760957095809590959B01A0
:101AB000AC01BD01CF010895EE0FFF1F0590F49119
:101AC000E02D09940F931F93CF93DF9382309105FC
:101AD00010F482E090E0E0910B02F0910C0230E013
:101AE00020E0B0E0A0E0309799F42115310509F429
:101AF0004AC0281B390B24303105D8F58A819B81D7
:101B00006115710589F1FB0193838283FE0111C088
:101B1000408151810281138148175907E0F048172D
:101B2000590799F4109761F012960C931297139637
:101B30001C933296CF01DF91CF911F910F910895A1
:101B400000930B0210930C02F4CF2115310551F0D4
:101B50004217530738F0A901DB019A01BD01DF01EB
:101B6000F801C1CFEF01F9CF90930C0280930B02E3
:101B7000CDCFFE01E20FF31F8193919322503109E3
:101B800039832883D7CF2091090230910A02232B71
:101B900041F4209103013091040130930A02209313
:101BA000090220910101309102012115310541F412
:101BB0002DB73EB74091050150910601241B350B0E
:101BC000E0910902F0910A02E217F307A0F42E1B3C
:101BD0003F0B2817390778F0AC014E5F5F4F241791
:101BE000350748F04E0F5F1F50930A0240930902D9
:101BF000819391939FCFF0E0E0E09CCFCF93DF9370
:101C00000097E9F0FC01329713821282A0910B0237
:101C1000B0910C02ED0130E020E01097A1F420819A
:101C20003181820F931F2091090230910A022817F7
:101C3000390709F061C0F0930A02E0930902DF91CD
:101C4000CF910895EA01CE17DF07E8F54A815B815D
:101C50009E0141155105B1F7E901FB83EA834991E2
:101C60005991C40FD51FEC17FD0761F48081918154
:101C70000296840F951FE90199838883828193815D
:101C80009B838A83F0E0E0E012968D919C911397FC
:101C90000097B9F52D913C911197CD010296820FD5
:101CA000931F2091090230910A022817390739F64B
:101CB000309751F510920C0210920B02B0930A0269
:101CC000A0930902BCCFD383C28340815181840F8A
:101CD000951FC817D90761F44E5F5F4F88819981BE
:101CE000480F591F518340838A819B81938382834C
:101CF0002115310509F0B0CFF0930C02E0930B02EF
:101D00009ECFFD01DC01C0CF13821282D7CFB0E09D
:101D1000A0E0EDE8FEE00C944C0A8C01009751F431
:101D2000CB010E94620D8C01C801CDB7DEB7E0E1A6
:101D30000C94680AFC01E60FF71F9C012250310940
:101D4000E217F30708F49DC0D901CD91DC911197FA
:101D5000C617D70798F0C530D10530F3CE010497E8
:101D60008617970708F3C61BD70B2297C193D19309
:101D70006D937C93CF010E94FE0DD6CF5B01AC1A10
:101D8000BD0A4C018C0E9D1EA0910B02B0910C025D
:101D9000512C412CF12CE12C109731F58091090246
:101DA00090910A028815990509F05CC046165706FD
:101DB00008F058C08091010190910201009741F410
:101DC0008DB79EB74091050150910601841B950B7C
:101DD000E817F90708F055C0F0930A02E0930902EA
:101DE000F90171836083A0CF8D919C911197129618
:101DF0006C90129713967C901397A815B90559F516
:101E00006C0142E0C40ED11CCA14DB0420F1AC0109
:101E10004A195B09DA011296159780F06282738283
:101E200051834083D9016D937C93E114F10471F0E7
:101E3000D7011396FC93EE93129776CF22968C0FD0
:101E40009D1FF90191838083F301EFCFF0930C0282
:101E5000E0930B0269CF4816590608F42C017D0166
:101E6000D3019ACFCB010E94620D7C01009749F00B
:101E7000AE01B8010E94440FC8010E94FE0D870107
:101E800053CF10E000E050CFFB01DC0102C0019015
:101E90000D9241505040D8F70895FB01DC010190AC
:101EA0000D920020E1F70895F894FFCFFF00000D98
:101EB000028000000000006E01CE00FB00BB012C80
:101EC000010A011E01426567696E204379636C65F2
:101ED000000D0A004C454420537465703A20004CB4
:101EE0004544206272696768746E6573733A2000B6
:081EF0004C4544206F666600BA
:107E0000112484B714BE81FFF0D085E080938100F7
:107E100082E08093C00088E18093C10086E0809377
:107E2000C20080E18093C4008EE0C9D0259A86E02C
:107E300020E33CEF91E0309385002093840096BBD3
:107E4000B09BFECF1D9AA8958150A9F7CC24DD24C4
:107E500088248394B5E0AB2EA1E19A2EF3E0BF2EE7
:107E6000A2D0813461F49FD0082FAFD0023811F036
:107E7000013811F484E001C083E08DD089C08234E0
:107E800011F484E103C0853419F485E0A6D080C0E4
:107E9000853579F488D0E82EFF2485D0082F10E0AE
:107EA000102F00270E291F29000F111F8ED06801E7
:107EB0006FC0863521F484E090D080E0DECF843638
:107EC00009F040C070D06FD0082F6DD080E0C81688
:107ED00080E7D80618F4F601B7BEE895C0E0D1E017
:107EE00062D089930C17E1F7F0E0CF16F0E7DF06D8
:107EF00018F0F601B7BEE89568D007B600FCFDCFD4
:107F0000A601A0E0B1E02C9130E011968C91119780
:107F100090E0982F8827822B932B1296FA010C0160
:107F200087BEE89511244E5F5F4FF1E0A038BF0790
:107F300051F7F601A7BEE89507B600FCFDCF97BE46
:107F4000E89526C08437B1F42ED02DD0F82E2BD052
:107F50003CD0F601EF2C8F010F5F1F4F84911BD097
:107F6000EA94F801C1F70894C11CD11CFA94CF0C13
:107F7000D11C0EC0853739F428D08EE10CD085E9AC
:107F80000AD08FE07ACF813511F488E018D01DD067
:107F900080E101D065CF982F8091C00085FFFCCF94
:107FA0009093C60008958091C00087FFFCCF809118
:107FB000C00084FD01C0A8958091C6000895E0E648
:107FC000F0E098E1908380830895EDDF803219F02E
:107FD00088E0F5DFFFCF84E1DECF1F93182FE3DFCA
:107FE0001150E9F7F2DF1F91089580E0E8DFEE27F6
:047FF000FF270994CA
:027FFE00040479
:00000001FF
