:020000040000FA
:100000000C94A3000C94CB000C94CB000C94CB006C
:100010000C94CB000C94CB000C94CB000C94CB0034
:100020000C94CB000C94CB000C94CB000C94CB0024
:100030000C94CB000C94CB000C94CB000C94CB0014
:100040000C940A040C94CB000C94D8030C94B203C7
:100050000C94CB000C94CB000C94CB000C94CB00F4
:100060000C94CB000C94CB0007634236B79BD8A707
:100070001A39685618AEBAAB558C1D3CB7CC5763CD
:10008000BD6DEDFD753EF6177231BF000000803F7B
:1000900008000000BE922449123EABAAAA2ABECD97
:1000A000CCCC4C3E00000080BEABAAAAAA3E000009
:1000B0000000BF000000803F000000000008417801
:1000C000D3BB4387D1133D190E3CC3BD4282AD2B38
:1000D0003E68EC8276BED98FE1A93E4C80EFFFBE30
:1000E00001C4FF7F3F00000000000000000024006A
:1000F00027002A0000000000250028002B00000037
:10010000000023002600290004040404040404045D
:1001100002020202020203030303030301020408B2
:100120001020408001020408102001020408102061
:1001300000000008000201000003040700000000A6
:1001400000000000300611241FBECFEFD8E0DEBF54
:10015000CDBF21E0ACE4B1E001C01D92AA3FB207DF
:10016000E1F711E0A0E0B1E0E0EBF8E102C00590BA
:100170000D92AC34B107D9F710E0C3EAD0E004C067
:100180002197FE010E945E0AC23AD107C9F70E9478
:1001900054040C94560C0C940000AF92BF92CF9272
:1001A000DF92EF92FF920F931F93CF93DF936C0137
:1001B0007B018B01040F151FEB015E01AE18BF0818
:1001C000C017D10759F06991D601ED91FC910190CA
:1001D000F081E02DC6010995892B79F7C501DF91E2
:1001E000CF911F910F91FF90EF90DF90CF90BF9034
:1001F000AF900895FC01538D448D252F30E0842F5E
:1002000090E0821B930B541710F0CF96089501973E
:100210000895FC01918D828D981761F0A28DAE0F2B
:10022000BF2FB11D5D968C91928D9F5F9F73928FB2
:1002300090E008958FEF9FEF0895FC01918D828DDE
:10024000981731F0828DE80FF11D858D90E00895AB
:100250008FEF9FEF0895FC01918D228D892F90E003
:10026000805C9F4F821B91098F739927089589E5C0
:1002700091E00E942B0121E0892B09F420E0822FDC
:10028000089580E090E0892B29F00E9437018111C8
:100290000C9400000895FC01A48DA80FB92FB11D86
:1002A000A35ABF4F2C91848D90E001968F739927AC
:1002B000848FA689B7892C93A089B1898C9183708A
:1002C00080648C93938D848D981306C00288F38983
:1002D000E02D80818F7D80830895EF92FF920F93B0
:1002E0001F93CF93DF93EC0181E0888F9B8D8C8DE2
:1002F00098131AC0E889F989808185FF15C09FB7D6
:10030000F894EE89FF896083E889F9898081837098
:10031000806480839FBF81E090E0DF91CF911F9147
:100320000F91FF90EF900895F62E0B8D10E00F5F68
:100330001F4F0F731127E02E8C8D8E110CC00FB63E
:1003400007FCFACFE889F989808185FFF5CFCE01D6
:100350000E944B01F1CFEB8DEC0FFD2FF11DE35A05
:10036000FF4FF0829FB7F8940B8FEA89FB89808159
:100370008062CFCFCF93DF93EC01888D8823B9F0D3
:10038000AA89BB89E889F9898C9185FD03C08081A0
:1003900086FD0DC00FB607FCF7CF8C9185FFF2CF1D
:1003A000808185FFEDCFCE010E944B01E9CFDF9127
:1003B000CF910895833081F028F4813099F0823014
:1003C000A9F008958730A9F08830C9F08430B1F4DD
:1003D000809180008F7D03C0809180008F77809313
:1003E0008000089584B58F7784BD089584B58F7D8E
:1003F000FBCF8091B0008F778093B00008958091FB
:10040000B0008F7DF9CFCF93DF93E8E3F1E08491E3
:10041000E4E2F1E0D491E0E1F1E0C491CC23A1F079
:1004200081110E94DA01EC2FF0E0EE0FFF1FE25085
:10043000FF4FA591B491EC91ED2381E090E009F498
:1004400080E0DF91CF91089580E090E0FACF1F9394
:10045000CF93DF93282F30E0F901E05DFE4F8491C8
:10046000F901E45EFE4FD491F901E85FFE4FC491BB
:10047000CC23A9F0162F81110E94DA01EC2FF0E0B5
:10048000EE0FFF1FEC50FF4FA591B4918FB7F8947A
:10049000EC91111108C0D095DE23DC938FBFDF9162
:1004A000CF911F910895DE2BF8CFCF93DF9390E08B
:1004B000FC01E45EFE4F2491885F9E4FFC01849115
:1004C0008823D1F090E0880F991FFC01E651FF4F7F
:1004D000A591B491FC01EC50FF4FC591D4916230CD
:1004E00071F49FB7F8943C91822F809583238C936D
:1004F000E8812E2B28839FBFDF91CF9108958FB77E
:10050000F894EC912E2B2C938FBFF6CF3FB7F89435
:100510008091510190915201A0915301B0915401E9
:1005200026B5A89B05C02F3F19F00196A11DB11D4E
:100530003FBFBA2FA92F982F8827BC01CD01620F8A
:10054000711D811D911D42E0660F771F881F991F45
:100550004A95D1F708958F929F92AF92BF92CF9212
:10056000DF92EF92FF926B017C010E9486024B01A9
:100570005C01C114D104E104F104B9F00E948602C7
:10058000681979098A099B09683E734081059105BC
:1005900080F321E0C21AD108E108F10888EE880E44
:1005A00083E0981EA11CB11CE4CFFF90EF90DF9078
:1005B000CF90BF90AF909F908F900895FC010190D5
:1005C0000020E9F73197AF01481B590BBC0189E5C1
:1005D00091E00C94CD000F931F93CF93DF93EC0128
:1005E00088819981009759F02A813B812617370726
:1005F00030F081E0DF91CF911F910F9108958B0131
:100600006F5F7F4F0E94890B009759F09983888311
:100610001B830A832C813D81232B59F7FC01108217
:10062000E8CF80E0E7CFEF92FF920F931F93CF9335
:10063000DF936115710541F480E0DF91CF911F9147
:100640000F91FF90EF90089541155105B1F07B0196
:10065000EC010C811D81040F151FB8010E94EB02F3
:10066000882351F3288139818C819D81B701820FC4
:10067000931F0E944F0C1D830C8381E0DECFCF932C
:10068000DF93EC0188819981009711F00E94000BA3
:10069000198218821D821C821B821A82DF91CF91DF
:1006A0000895EF92FF920F931F93CF93DF93EC0186
:1006B0007B018A01BA010E94EB0281110BC0CE01BD
:1006C0000E943F03CE01DF91CF911F910F91FF90C8
:1006D000EF9008951D830C83B701888199810E9452
:1006E0004F0CF0CFEF92FF920F931F93CF93DF93B6
:1006F000CDB7DEB762970FB6F894DEBF0FBECDBFA1
:100700008C01CB01F80111821082138212821582B2
:1007100014824AE09E012F5F3F4F7901B9010E9488
:100720005D06F70101900020E9F73197AF014E19FE
:100730005F09B701C8010E94510362960FB6F89491
:10074000DEBF0FBECDBFDF91CF911F910F91FF9004
:10075000EF900895FC0180819181009711F00C9435
:10076000000B08951F920F920FB60F9211242F9332
:100770003F934F935F936F937F938F939F93AF9329
:10078000BF93EF93FF9389E591E00E944B01FF91A6
:10079000EF91BF91AF919F918F917F916F915F91F9
:1007A0004F913F912F910F900FBE0F901F90189572
:1007B0001F920F920FB60F9211242F938F939F9336
:1007C000EF93FF93E0916901F0916A018081E091DC
:1007D0006F01F091700182FD1BC0908180917201C8
:1007E0008F5F8F7320917301821741F0E091720146
:1007F000F0E0E75AFE4F958F80937201FF91EF91E1
:100800009F918F912F910F900FBE0F901F90189571
:100810008081F4CF1F920F920FB60F9211242F9365
:100820003F938F939F93AF93BF9380914D0190918E
:100830004E01A0914F01B091500130914C0123E045
:10084000230F2D3758F50196A11DB11D20934C01A2
:1008500080934D0190934E01A0934F01B0935001AE
:100860008091510190915201A0915301B091540196
:100870000196A11DB11D8093510190935201A09347
:100880005301B0935401BF91AF919F918F913F91CC
:100890002F910F900FBE0F901F90189526E8230FF1
:1008A0000296A11DB11DD2CFCF93DF93CDB7DEB796
:1008B0002C970FB6F894DEBF0FBECDBF789484B5E9
:1008C000826084BD84B5816084BD85B5826085BD4C
:1008D00085B5816085BD80916E00816080936E00DA
:1008E00010928100809181008260809381008091CC
:1008F000810081608093810080918000816080937D
:1009000080008091B10084608093B1008091B0003C
:1009100081608093B00080917A00846080937A0037
:1009200080917A00826080937A0080917A00816061
:1009300080937A0080917A00806880937A00109288
:10094000C10061E089E00E94550261E08DE00E94F3
:10095000550262E088E00E94550260E08DE00E944E
:10096000270261E089E00E94550260E089E00E9470
:100970002702E0916901F0916A0182E08083E091B1
:100980006501F09166011082E0916701F0916801C4
:100990008FEC808310927101E0916D01F0916E01F6
:1009A00086E08083E0916B01F0916C018081806131
:1009B0008083E0916B01F0916C018081886080837D
:1009C000E0916B01F0916C01808180688083E091FF
:1009D0006B01F0916C0180818F7D80838AE294E2CB
:1009E000A8E4B1E48093550190935601A093570178
:1009F000B093580189E3A82E81E0B82E90E0C92E6B
:100A000090E0D92E0E940302892B09F4C1C088E12D
:100A100091E00E94DE0284E291E00E94DE0210E09A
:100A200000E0B801012E000C880B990B0E9494067F
:100A30002091550130915601409157015091580134
:100A40000E9431089B01AC0160E070E080E090E41E
:100A50000E94D90820E030E040E85FE30E94C4072C
:100A60000E94A3082B017B0161E089E00E945502EE
:100A70004114510409F0ACC060E089E00E942702F3
:100A800068EE73E080E090E00E94AB02B801CE0116
:100A900001960E94720318861F821A8619861C8688
:100AA0001B864AE050E067E271E0CE0107960E94A3
:100AB00051034D815E8169817A81CE0107960E9442
:100AC0001303811104C0CE0107960E943F034B859A
:100AD0005C856F81788589E591E00E94CD0084E294
:100AE00091E00E94DE02CE0107960E94AA03CE0189
:100AF00001960E94AA03B201CE0101960E947203E0
:100B000018861F821A8619861C861B8640E150E0D3
:100B100062E371E0CE0107960E9451034D815E8130
:100B200069817A81CE0107960E941303811104C066
:100B3000CE0107960E943F034B855C856F817885C7
:100B400089E591E00E94CD0084E291E00E94DE02FE
:100B5000CE0107960E94AA03CE0101960E94AA0325
:100B60000F5F1F4F0536110509F05BCF61E08DE087
:100B70000E9427020E940302892BE1F360E08DE0CE
:100B80000E94270268EE73E080E090E00E94AB02D2
:100B900083E491E00E94DE0284E291E00E94DE02A2
:100BA00061E089E00E94550260E089E00E9427022E
:100BB00060E08DE00E942702C114D10409F422CF25
:100BC0000E943701882309F41DCF0E9400001ACF2C
:100BD0008FEF4816510411F461E04FCFF501849175
:100BE000833021F148F48130B9F08230D1F0F0E85F
:100BF000EF16F1048CF740CF873011F1883041F1C6
:100C00008430A9F7809180008062809380005092A8
:100C10008B0040928A0034CF84B5806884BD47BC85
:100C20002FCF84B5806284BD48BC2ACF80918000DC
:100C3000806880938000509289004092880020CF85
:100C40008091B00080688093B0004092B30018CFCC
:100C50008091B00080628093B0004092B40010CFC9
:100C6000E9E5F1E01382128288EE93E0A0E0B0E0C3
:100C700084839583A683B7838AE091E09183808300
:100C800085EC90E09587848784EC90E09787868751
:100C900080EC90E0918B808B81EC90E0938B828B49
:100CA00082EC90E0958B848B86EC90E0978B868B22
:100CB000118E128E138E148E0895BB274A3031F494
:100CC000992322F4BDE2909581959F4F0C9469067B
:100CD000BB27FB015527AA27880F991FAA1FA41716
:100CE00010F0A41B83955051B9F7A05DAA3308F00A
:100CF000A95DA193009779F7B111B1931192CB013E
:100D00000C948206DC01FC01672F71917723E1F7D7
:100D1000329704C07C916D9370836291AE17BF07C8
:100D2000C8F30895E89409C097FB3EF49095809528
:100D3000709561957F4F8F4F9F4F9923A9F0F92FA1
:100D400096E9BB279395F695879577956795B7951F
:100D5000F111F8CFFAF4BB0F11F460FF1BC06F5F05
:100D60007F4F8F4F9F4F16C0882311F096E911C017
:100D7000772321F09EE8872F762F05C0662371F038
:100D800096E8862F70E060E02AF09A95660F771F4C
:100D9000881FDAF7880F9695879597F908950E942E
:100DA000E2060C9453070E94450738F00E944C0756
:100DB00020F0952311F00C943C070C944207112469
:100DC0000C9487070E94640770F3959FC1F3950FF9
:100DD00050E0551F629FF001729FBB27F00DB11DBF
:100DE000639FAA27F00DB11DAA1F649F6627B00D4F
:100DF000A11D661F829F2227B00DA11D621F739F38
:100E0000B00DA11D621F839FA00D611D221F749F45
:100E10003327A00D611D231F849F600D211D822F8C
:100E2000762F6A2F11249F5750409AF0F1F08823B3
:100E30004AF0EE0FFF1FBB1F661F771F881F9150E0
:100E40005040A9F79E3F510580F00C943C070C944C
:100E500087075F3FE4F3983ED4F3869577956795CF
:100E6000B795F795E7959F5FC1F7FE2B880F911D0A
:100E70009695879597F9089597F99F6780E870E0B0
:100E800060E008959FEF80EC089500240A94161600
:100E9000170618060906089500240A941216130668
:100EA000140605060895092E0394000C11F48823F6
:100EB00052F0BB0F40F4BF2B11F460FF04C06F5F12
:100EC0007F4F8F4F9F4F089557FD9058440F551FE8
:100ED00059F05F3F71F04795880F97FB991F61F0BC
:100EE0009F3F79F087950895121613061406551F33
:100EF000F2CF4695F1DF08C0161617061806991F9F
:100F0000F1CF86957105610508940895E894BB2793
:100F100066277727CB0197F908952F923F924F923A
:100F20005F926F927F928F929F92AF92BF92CF9279
:100F3000DF92EF92FF920F931F93CF93DF93CDB782
:100F4000DEB7CA1BDB0B0FB6F894DEBF0FBECDBFFA
:100F500009942A88398848885F846E847D848C84CB
:100F60009B84AA84B984C884DF80EE80FD800C81D4
:100F70001B81AA81B981CE0FD11D0FB6F894DEBFB7
:100F80000FBECDBFED0108955058BB27AA270E9480
:100F9000DC070C9453070E94450738F00E944C0769
:100FA00020F039F49F3F19F426F40C9442070EF414
:100FB000E095E7FB0C943C07E92F0E94640758F387
:100FC000BA17620773078407950720F079F4A6F52E
:100FD0000C9486070EF4E0950B2EBA2FA02D0B0172
:100FE000B90190010C01CA01A0011124FF27591B6E
:100FF00099F0593F50F4503E68F11A16F040A22F74
:10100000232F342F4427585FF3CF469537952795E4
:10101000A795F0405395C9F77EF41F16BA0B620BE3
:10102000730B840BBAF09150A1F0FF0FBB1F661F2A
:10103000771F881FC2F70EC0BA0F621F731F841F6D
:1010400048F4879577956795B795F7959E3F08F093
:10105000B0CF9395880F08F09927EE0F9795879555
:1010600008950E9445080C9453070E944C0758F0BD
:101070000E94450740F029F45F3F29F00C943C079B
:1010800051110C9487070C9442070E94640768F37F
:101090009923B1F3552391F3951B550BBB27AA2731
:1010A00062177307840738F09F5F5F4F220F331F6B
:1010B000441FAA1FA9F335D00E2E3AF0E0E832D033
:1010C00091505040E695001CCAF72BD0FE2F29D036
:1010D000660F771F881FBB1F261737074807AB0708
:1010E000B0E809F0BB0B802DBF01FF2793585F4F7D
:1010F0003AF09E3F510578F00C943C070C9487071A
:101100005F3FE4F3983ED4F3869577956795B7955E
:10111000F7959F5FC9F7880F911D9695879597F969
:101120000895E1E0660F771F881FBB1F62177307E2
:101130008407BA0720F0621B730B840BBA0BEE1FF7
:1011400088F7E09508950E94AA086894B1110C945C
:10115000870708950E946C0788F09F5798F0B92F71
:101160009927B751B0F0E1F0660F771F881F991FDC
:101170001AF0BA95C9F714C0B13091F00E948607F1
:10118000B1E008950C948607672F782F8827B85F01
:1011900039F0B93FCCF3869577956795B395D9F734
:1011A0003EF490958095709561957F4F8F4F9F4F3E
:1011B0000895FA01EE0FFF1F309621053105A1F1C8
:1011C0006115710561F48038BFE39B0749F16894AC
:1011D0009038810561F08038BFEF9B0741F099237B
:1011E0004AF5FF3FE1053105210519F1E89408941E
:1011F000E795D901AA2329F4AB2FBE2FF85FD0F3CE
:1012000010C0FF5F70F4A695E0F7F73950F019F0C1
:10121000FF3A38F49F779F930DD00F9007FC9058BA
:10122000089546F00C94420760E070E080E89FE388
:1012300008954FE79F775F934F933F932F930E94BB
:10124000D4092F913F914F915F910E94CF060C944A
:10125000310929F416F00C943C070C9486070C9481
:1012600042070E946C07A8F39638A0F707F80F9280
:10127000E8942BE33AEA48EB5FE70E94E5060F9219
:101280000F920F924DB75EB70F920E941C0AE8E6CC
:10129000F0E00E9463094F915F91EF91FF91E59516
:1012A000EE1FFF1F49F0FE57E0684427EE0F441F72
:1012B000FA95E1F74195550B0E9496090F9007FEAC
:1012C0000C948A090895DF93CF931F930F93FF9295
:1012D000EF92DF927B018C01689406C0DA2EEF0159
:1012E0000E94E206FE01E894A59125913591459171
:1012F0005591A6F3EF010E94DC07FE019701A801BA
:10130000DA9469F7DF90EF90FF900F911F91CF91E2
:10131000DF9108959B01AC0160E070E080E89FE3FD
:101320000C9431080C943C070C94500A0E946C07F2
:10133000D8F39923C9F3940F511DA3F39150504052
:1013400094F059F0882332F0660F771F881F915070
:101350005040C1F79E3F51052CF7880F911D96957F
:10136000879597F908955F3FACF0983E9CF0BB27B6
:10137000869577956795B79508F4B1609395C1F711
:10138000BB0F58F711F460FFE8CF6F5F7F4F8F4FAF
:101390009F4FE3CF0C94870716F00C94500A0C94DF
:1013A000420768940C943C070E946C07A8F39923A9
:1013B000C1F3AEF3DF93CF931F930F93FF92C92F27
:1013C000DD2788232AF02197660F771F881FDAF719
:1013D00020E030E040E85FEB9FE3883920F0803E7A
:1013E00038F021968F770E94C507E0E9F0E004C04D
:1013F0000E94C507EDEBF0E00E9463098B01BE017E
:10140000EC01FB2E6F5771097595771F880B990BAF
:101410000E94940628E132E741E35FE30E94E2067E
:10142000AF2D9801AE01FF900F911F91CF91DF91E9
:101430000E94DC070C945307FA01DC01AA0FBB1FC2
:101440009B01AC01BF5728F422273327442750784B
:1014500020C0B75190F4AB2F0024469537952795BF
:10146000011CA395D2F3002071F0220F331F441FFB
:10147000B395DAF30ED00C94C40761307105A0E87F
:101480008A07B94630F49B01AC0166277727882785
:101490009078309621F020833183428353830895DE
:1014A0009F3F31F0915020F4879577956795B795D8
:1014B000880F911D9695879597F90895EE0FFF1F58
:1014C0000590F491E02D09940F931F93CF93DF9330
:1014D0008230910510F482E090E0E091F801F09103
:1014E000F90130E020E0B0E0A0E0309799F4211558
:1014F000310509F44AC0281B390B24303105D8F5D1
:101500008A819B816115710589F1FB019383828337
:10151000FE0111C040815181028113814817590792
:10152000E0F04817590799F4109761F012960C9360
:10153000129713961C933296CF01DF91CF911F9192
:101540000F9108950093F8011093F901F4CF21153C
:10155000310551F04217530738F0A901DB019A0118
:10156000BD01DF01F801C1CFEF01F9CF9093F9017F
:101570008093F801CDCFFE01E20FF31F8193919389
:101580002250310939832883D7CF2091F601309139
:10159000F701232B41F42091020130910301309394
:1015A000F7012093F60120910001309101012115EE
:1015B000310541F42DB73EB740910401509105012A
:1015C000241B350BE091F601F091F701E217F307C8
:1015D000A0F42E1B3F0B2817390778F0AC014E5FA3
:1015E0005F4F2417350748F04E0F5F1F5093F701E8
:1015F0004093F601819391939FCFF0E0E0E09CCF80
:10160000CF93DF930097E9F0FC01329713821282A7
:10161000A091F801B091F901ED0130E020E01097C0
:10162000A1F420813181820F931F2091F601309126
:10163000F7012817390709F061C0F093F701E0932B
:10164000F601DF91CF910895EA01CE17DF07E8F5A3
:101650004A815B819E0141155105B1F7E901FB8388
:10166000EA8349915991C40FD51FEC17FD0761F426
:10167000808191810296840F951FE9019983888367
:10168000828193819B838A83F0E0E0E012968D91C2
:101690009C9113970097B9F52D913C911197CD012D
:1016A0000296820F931F2091F6013091F7012817BF
:1016B000390739F6309751F51092F9011092F80177
:1016C000B093F701A093F601BCCFD383C2834081CE
:1016D0005181840F951FC817D90761F44E5F5F4F82
:1016E00088819981480F591F518340838A819B814A
:1016F000938382832115310509F0B0CFF093F9016E
:10170000E093F8019ECFFD01DC01C0CF138212826D
:10171000D7CFB0E0A0E0EFE8FBE00C948F078C019E
:10172000009751F4CB010E94640A8C01C801CDB727
:10173000DEB7E0E10C94AB07FC01E60FF71F9C015C
:1017400022503109E217F30708F49DC0D901CD9169
:10175000DC911197C617D70798F0C530D10530F343
:10176000CE0104978617970708F3C61BD70B22975D
:10177000C193D1936D937C93CF010E94000BD6CF80
:101780005B01AC1ABD0A4C018C0E9D1EA091F801A4
:10179000B091F901512C412CF12CE12C109731F52D
:1017A0008091F6019091F7018815990509F05CC0C8
:1017B0004616570608F058C080910001909101012B
:1017C000009741F48DB79EB74091040150910501F7
:1017D000841B950BE817F90708F055C0F093F70143
:1017E000E093F601F90171836083A0CF8D919C9104
:1017F000119712966C90129713967C901397A815D8
:10180000B90559F56C0142E0C40ED11CCA14DB04C1
:1018100020F1AC014A195B09DA011296159780F0A4
:101820006282738251834083D9016D937C93E1146A
:10183000F10471F0D7011396FC93EE93129776CFD3
:1018400022968C0F9D1FF90191838083F301EFCFC6
:10185000F093F901E093F80169CF4816590608F4AE
:101860002C017D01D3019ACFCB010E94640A7C0137
:10187000009749F0AE01B8010E94460CC8010E94D1
:10188000000B870153CF10E000E050CFFB01DC01DB
:1018900002C001900D9241505040D8F70895FB01CD
:1018A000DC0101900D920020E1F70895F894FFCF3C
:1018B0000000FA018000000000006D01CD00FA0078
:1018C000BA012B0109011D01426567696E20437948
:1018D000636C65000D0A004C454420537465703AF2
:1018E00020004C4544206272696768746E657373AA
:0C18F0003A20004C4544206F6666000062
:107E0000112484B714BE81FFF0D085E080938100F7
:107E100082E08093C00088E18093C10086E0809377
:107E2000C20080E18093C4008EE0C9D0259A86E02C
:107E300020E33CEF91E0309385002093840096BBD3
:107E4000B09BFECF1D9AA8958150A9F7CC24DD24C4
:107E500088248394B5E0AB2EA1E19A2EF3E0BF2EE7
:107E6000A2D0813461F49FD0082FAFD0023811F036
:107E7000013811F484E001C083E08DD089C08234E0
:107E800011F484E103C0853419F485E0A6D080C0E4
:107E9000853579F488D0E82EFF2485D0082F10E0AE
:107EA000102F00270E291F29000F111F8ED06801E7
:107EB0006FC0863521F484E090D080E0DECF843638
:107EC00009F040C070D06FD0082F6DD080E0C81688
:107ED00080E7D80618F4F601B7BEE895C0E0D1E017
:107EE00062D089930C17E1F7F0E0CF16F0E7DF06D8
:107EF00018F0F601B7BEE89568D007B600FCFDCFD4
:107F0000A601A0E0B1E02C9130E011968C91119780
:107F100090E0982F8827822B932B1296FA010C0160
:107F200087BEE89511244E5F5F4FF1E0A038BF0790
:107F300051F7F601A7BEE89507B600FCFDCF97BE46
:107F4000E89526C08437B1F42ED02DD0F82E2BD052
:107F50003CD0F601EF2C8F010F5F1F4F84911BD097
:107F6000EA94F801C1F70894C11CD11CFA94CF0C13
:107F7000D11C0EC0853739F428D08EE10CD085E9AC
:107F80000AD08FE07ACF813511F488E018D01DD067
:107F900080E101D065CF982F8091C00085FFFCCF94
:107FA0009093C60008958091C00087FFFCCF809118
:107FB000C00084FD01C0A8958091C6000895E0E648
:107FC000F0E098E1908380830895EDDF803219F02E
:107FD00088E0F5DFFFCF84E1DECF1F93182FE3DFCA
:107FE0001150E9F7F2DF1F91089580E0E8DFEE27F6
:047FF000FF270994CA
:027FFE00040479
:00000001FF
